:020000040800F2
:1000000000180020C12000086D1F0008711F0008A3
:1000100000000000000000000000000000000000E0
:10002000000000000000000000000000751F000834
:100030000000000000000000791F00087D1F00087C
:100040001121000800000000112100081121000802
:1000500011210008112100088D1F0008112100083E
:1000600000000000112100081121000811210008E2
:1000700011210008112100081121000800000000D2
:1000800011210008000000000000000011210008FC
:10009000000000001121000811210008A91F00081C
:1000A00000000000112100080000000011210008DC
:1000B0001121000800000000000000000000000006
:1000C00010B5064C2378002B07D1054B002B02D02E
:1000D000044800E000BF0123237010BD6C00002025
:1000E0000000000074500008044B10B5002B03D032
:1000F0000349044800E000BF10BDC04600000000F6
:100100007000002074500008002243088B4274D312
:1001100003098B425FD3030A8B4244D3030B8B4208
:1001200028D3030C8B420DD3FF22090212BA030C11
:100130008B4202D31212090265D0030B8B4219D3F2
:1001400000E0090AC30B8B4201D3CB03C01A524112
:10015000830B8B4201D38B03C01A5241430B8B425A
:1001600001D34B03C01A5241030B8B4201D30B0343
:10017000C01A5241C30A8B4201D3CB02C01A52416A
:10018000830A8B4201D38B02C01A5241430A8B422D
:1001900001D34B02C01A5241030A8B4201D30B0216
:1001A000C01A5241CDD2C3098B4201D3CB01C01A30
:1001B000524183098B4201D38B01C01A524143093A
:1001C0008B4201D34B01C01A524103098B4201D328
:1001D0000B01C01A5241C3088B4201D3CB00C01A95
:1001E000524183088B4201D38B00C01A524143080D
:1001F0008B4201D34B00C01A5241411A00D2014632
:10020000524110467047FFE701B5002000F006F8A4
:1002100002BDC0460029F7D076E770477047C04658
:10022000844608006146FFE71FB500F0FDFB00288B
:1002300001D40021C8421FBD10B500F085FB40422B
:10024000013010BD10B500F0EFFB002801DB0020ED
:1002500010BD012010BDC04610B500F0E5FB002820
:1002600001DD002010BD012010BDC04610B500F01A
:1002700093FB002801DC002010BD012010BDC0460A
:1002800010B500F089FB002801DA002010BD012024
:1002900010BDC0461C2101231B04984201D3000C51
:1002A00010391B0A984201D3000A08391B099842E9
:1002B00001D30009043902A2105C40187047C046FF
:1002C000040302020101010100000000000000001F
:1002D0009E2110B5C905041CFFF7D2FF002803D1E9
:1002E000201C00F093FF10BD9E21201CC90500F0CA
:1002F00035FD00F08BFF80231B069C466044F2E72F
:100300004A02F8B5530ACE4699464B00C90F4746F4
:10031000884646004502360E1B0E80B5C40F6F0A94
:100320009209AD09F11A44454BD0002938DD002B64
:1003300000D174E0FF2E00D1BEE08023DB041A431D
:100340001B2900DCFDE0013D6B0100D4AFE001257D
:100350006D42AD01AF093800FFF79CFF3B00053847
:100360008340864200DCD3E0B94D311A1D405A0764
:1003700000D19EE00F221340042B00D199E00435F8
:100380006B0100D495E0481CFE2951D1FF200023C9
:10039000C0051843E4072043C0BCB946B046F8BDC9
:1003A000002949D0991B002E72D1002D00D133E1D4
:1003B0004C1E012900D159E1FF2900D14CE1210057
:1003C0006CE0002900DC81E0002B55D1002A70D0C0
:1003D0004B1E012900D12BE1FF296DD01B2B50DCD6
:1003E000190020235B1A10009A40C840531E9A41FE
:1003F0000243AD188023DB041D4200D1ADE0711C27
:10040000FE2EC3D001206A082840924D15400543B6
:100410006A0700D08BE01D42B5D1EF0834E0002A16
:1004200047D04B1E012966D0FF2945D0190087E728
:10043000C0B2AB015B0AABE7FE239C46701C030015
:100440006046184200D092E0002E00D0E7E0002D78
:1004500000D119E1002A17D08023AF1ADB041F4214
:1004600000D142E14446551B00D187E001201D42E6
:10047000DFD10021EF0807E0FF2E1DD01B2900DC93
:1004800094E031000535EF087B025B0AC8B27FE7D4
:10049000FF2B00D1E0E08020C00405431B2900DCD5
:1004A00088E0551E44461E00690100D54FE7310023
:1004B0000435EF08FF29E7D1002F00D166E780233C
:1004C000DB033B435B02FF205B0A61E7002958D056
:1004D000991B002E00D089E0002D00D19DE04E1E1A
:1004E000012900D1A4E0FF2900D1B6E01B2E00DDD8
:1004F000B8E0310081E0AA1A530100D4AFE09701BF
:10050000BF093800FFF7C6FE3B00053883400126CF
:100510001D00811B20200131CD40411A8B40591E06
:100520008B411D432AD000216B0700D1F0E00F233F
:100530002B40042B00D022E76B0100D523E7EF0806
:10054000A2E720235B1A10009A40C840531E9A412C
:100550000243AD1A6B0100D5FBE66B0700D1D5E075
:100560000F2331002B40042B00D008E7A1E7AF1A7E
:100570007B014ED4002F00D0EDE6002400200023A4
:1005800006E7FE23711C0B4221D1002E00D081E032
:10059000002D00D19FE0002A00D1B2E0AB185A0133
:1005A00000D4B0E09B0101205B0AF1E68023DB046C
:1005B0001A4316E720242800C840611A8D402900FC
:1005C0004C1EA141014344461E00551AC2E7FF29B3
:1005D00000D1DBE6AF187F087B0705D00F233D1D58
:1005E0003B40042B00D064E7FF084DE7FF2B34D0DD
:1005F0001B2937DC8020C004054328002026C84082
:10060000711A8D4029004D1EA94101431E008D180D
:10061000F0E64446571B9EE64446150049E7002D88
:1006200046D1002A66D180230024FF20DB03AFE6F9
:10063000AA18530113D5074F52081740530744D047
:100640000F231340042B40D002213D1D31E7C0464B
:10065000FFFFFFFBFFFFFF7D44464F462CE70121D4
:10066000D70811E705321900D7080DE7571B7B01A2
:1006700037D5BF01BF093800FFF70CFE3B00053836
:1006800083404446013643E7002A00D175E74446DB
:100690004F46F9E6002DE0D08023DB03002A17D077
:1006A0009F4200D20BE7994500D308E74F4606E783
:1006B0008023DB03002A0BD09F4200D2FFE699453E
:1006C00000D3FCE644464F46F9E60221FF08DBE68C
:1006D000FF203B435CE6002A00D14FE70021D7080A
:1006E000D2E644460121FF08CEE6002F00D07BE78A
:1006F000002443E780234A46DB034446FF2013439C
:1007000046E60021C0E60021DF08BDE63100D0E664
:1007100001206A0100D58BE62A00DFE7F0B54646E6
:100720004F46D6464502C0B5C30F470098460E1C3B
:100730006D0A3F0E5BD0FF2F21D08023ED00DB043C
:100740001D43002399469A467F3F74027300640A52
:100750001B0EF60F002B20D0FF2B43D08022002051
:10076000E400D20414437F3B4246FF1A4B467240DA
:100770000F2B00D99DE071499B00CB589F46002D5F
:100780005AD108239946063B74029A467300FF2704
:10079000640A1B0EF60F002BDED1002C3BD1012387
:1007A00042464946724019430E2918D864488900C8
:1007B00041588F465346022B00D1B8E0032B6ED030
:1007C00042462C00012B40D100200024C0052043CC
:1007D000D2071043E0BCBA46B146A846F0BDFF20A0
:1007E0000024F3E7002C20D10223FF3FD8E7002D9F
:1007F00005D104239946033B00279A46A5E7280024
:10080000FFF748FD7627431F9D4000237F4299460E
:100810009A463F1A99E72000FFF73CFD431F9C4092
:1008200076235B421B1A00209EE703234A461A43A5
:1008300091460320FC3397E70C239946093BFF2799
:100840009A4682E703282CD0320038007F300028F7
:1008500047DD630704D00F232340042B00D004346A
:10086000230103D53800374B80301C40FE28B6DC0E
:10087000A401640AC0B2A9E780240022FF20E40397
:10088000A4E78023DB031D4201D01C420BD080244F
:10089000E4032C4364024246FF20640A96E746467E
:1008A0002C008023DB031C4364023200FF20640A17
:1008B0008CE76D01600185422DD21B230024013F8E
:1008C0000126290064006D00002901DB854201D367
:1008D0002D1A3443013B002BF3D16B1E9D412C4359
:1008E000B3E701231B1A1B2B00DD6DE721009E37A8
:1008F000D940BC400B00611E8C412343590704D0F2
:100900000F211940042900D00433590113D49B014D
:1009100000205C0A5AE71A2301242D1AD0E7981EFA
:1009200043425841404232000024C0B24EE74246A2
:10093000FF2000244AE70120002447E78C500008EC
:10094000CC500008FFFFFFF770B542004E024C008C
:1009500045026D0A120EC30F760A240EC90FFF2A34
:1009600010D0FF2C0CD00120A2420AD1B54208D1F0
:100970008B420FD0002A04D12800431E984100E08A
:10098000012070BD0120FF2CFBD13543F9D14B4034
:100990001800F6E70020F4E730B5420044024D02AB
:1009A000C30F4800640A120E6D0A000EC90FFF2A19
:1009B00018D0FF280AD0002A1ED100280AD1002D05
:1009C00029D0002C2DD14800013830BD002D25D173
:1009D000002A01D1002CF6D08B4219D001205B42B5
:1009E0001843F2E7002C19D1FF28F7D1002D15D1BB
:1009F00000208B42F2D1E8E70028EFD08B42EDD106
:100A00008242EBDC04DBAC42E8D80020AC42DCD212
:100A100058000138D9E7002CD7D0DFE70220404248
:100A2000D3E78B42DAD1EEE730B5420044024D0203
:100A3000C30F4800640A120E6D0A000EC90FFF2A88
:100A400017D0FF280AD0002A1BD100280AD1002D78
:100A50001DD0002C2DD14800013811E0002D0ED101
:100A6000002A01D1002CF6D08B420CD1580001385D
:100A700006E0002C03D1FF2805D1002D15D002205F
:100A800030BD002806D101205B421843F8E7002C56
:100A9000F6D0F8E78B42F6D18242F4DCE6DBAC42DA
:100AA000F1D80020AC42EBD2E0E700208B42EAD143
:100AB000E6E78B42E7D1F2E7F0B54F464646D64629
:100AC0004502C0B546000F1C6D0A360EC40F002E3D
:100AD00000D1CDE0FF2E72D08023ED00DB041D435A
:100AE000002399469A467F3E7B025B0A98467B002C
:100AF0001B0EFF0F002B72D0FF2B00D1A9E07F3B14
:100B0000F6184B460A2B00DD85E043468022DB00C9
:100B1000D2041A434B4690467C400022022B0FDD44
:100B2000494601238B40A621C9000B4200D072E048
:100B3000902189000B4200D0DAE08821194267D168
:100B4000280C42462D042D0C4346290012041B0C90
:100B5000120C51435D4342435843AD180B0C5B19D3
:100B60009A4203D9802252029446604409041A042E
:100B7000090C52189501691E8D411B0C920E1B1811
:100B800015439B011D431B0100D5CFE030007F3092
:100B9000002800DCB1E06B070BD00F2332002B40A4
:100BA000042B06D004352B0103D5803210006A4B8C
:100BB0001D40FE2864DCAB015B0AC0B21FE0002DC3
:100BC00000D08FE008239946063B9A467B025B0AD9
:100BD00098467B00FF261B0EFF0F002B8CD143464F
:100BE000002B5CD14A4601331A43914613000A2A6E
:100BF00011DC01227C40022B92DC00200023C00586
:100C00001843E4072043E0BCBA46B146A846F0BD0D
:100C10003C00454692465346022B31D0032B11D05F
:100C2000012BEAD030008030721C002866DD6B0793
:100C3000B9D00F232B40042BB4D1B4E70F2A7AD0BC
:100C40003C0045468023DB032B435B02FF205B0A0D
:100C5000D5E74346FF36002B34D14A4602331343CF
:100C60000A2BD8DC7C40002A0AD09946022257E79A
:100C7000002D08D104239946033B00269A4633E70A
:100C8000FF200023BBE72800FFF704FB7626431F65
:100C90009D400023764299469A46361A24E74046FC
:100CA000FFF7F8FA4B46361A763E0A2BB3DC43467A
:100CB0000538834098464B4600227C40022B00DDDD
:100CC0002EE73DE703234A461A4313000A2AB5DC00
:100CD00001229A40882113007C400322194200D14E
:100CE0002EE795E70C239946093BFF269A46FBE63B
:100CF00080230024FF20DB0381E7320001231B1A3D
:100D00001B2B00DD79E79E3229009540D9406A1EF1
:100D100095410D436B0704D00F232B40042B00D0CB
:100D200004356B0113D50120002368E701236A080D
:100D30001D40154376E78023DB031D4282D04246E7
:100D40001A4200D07EE73C00FF20134357E7AB0177
:100D500000205B0A53E7C046FFFFFFF7F8B54746A0
:100D6000CE464B02460080B5C40F4702580A84465F
:100D700048007A0A360EBF09000ECD0F9B09FF28E6
:100D80006DD001214D40311AAC423AD0002900DC2F
:100D90009CE1002800D19EE0FF2E00D188E0802257
:100DA000D20413431B2900DCF6E0013F7A0100D492
:100DB00079E001277F42BF01BB0998464046FFF713
:100DC00069FA434605388340864200DCCCE0B44FE4
:100DD000311A1F405A0768D00F221340042B64D0E9
:100DE00004377B0161D5481CFE2900D081E0FF203B
:100DF0000023C0051843E4072043C0BCB946B046F1
:100E0000F8BD002900DC79E1002876D1002B4CD018
:100E1000481E012900D147E1FF2949D01B2871DC78
:100E200001001A002020CA40411A8B40591E8B41F4
:100E30001343FF188023DB041F4200D1B8E0711C6C
:100E4000FE2ED4D0012297483A407F08074017432E
:100E50007A0700D096E01F42C5D1FA0855E031006C
:100E6000FF398946002B2CD101214D40AC4200D1E5
:100E7000B4E0494600294CD0002E00D0F9E0FF2113
:100E8000002F00D108E14A1E012900D156E1FF29B7
:100E900000D142E11B2A00DC24E15F1E2C00060089
:100EA0007A0100D585E731000437FA08FF292CD1F3
:100EB000002A9CD08023DB0313435B02FF205B0AE4
:100EC00097E7AC4200D1A7E0002922D0002ED6D06F
:100ED00062462C00EEE7002BE7D0481E012936D0F1
:100EE000FF29E5D001005DE701203B007A0100D435
:100EF00057E1C0B2BB015B0A7BE7FF2ED8D01B29AC
:100F000000DC9FE031000537FA0853025B0AC8B2E3
:100F10006FE7FE20711C084254D1002E00D0B1E0D2
:100F2000002F00D102E1002B00D1F9E08021FA1A54
:100F3000C9040A4200D13BE10124DF1B2C40002FF1
:100F400049D001200F42D5D10021FA08DDE7FF1A70
:100F50007B0100D4DEE0BD01AD092800FFF79AF95E
:100F60002B000538834001262022811B0131521AB3
:100F70001F009340CF405A1E93411F432BD00021A6
:100F80007B07B1D00F233B40042B00D028E77B0127
:100F900000D528E7FA08B8E71A002020CA40411A0D
:100FA0008B40591E8B411343FF1A7B0100D502E78A
:100FB0007B0700D10DE10F2331003B40042B00D013
:100FC0000EE772E7FA1A9046520156D44346002BB8
:100FD00000D0F3E60024002000230AE74946002958
:100FE0001CD0002E00D002E7FF21002F55D04A1E52
:100FF000012959D0FF2900D190E01B2A00DD91E0A2
:1010000011003A002025CA40691A8F40791E8F418D
:1010100017430600FF180DE7002926D1FE20711C9A
:10102000084213D1002E00D096E0002F00D1B4E08A
:10103000002B75D0FB185A0100D4B2E09B015B0A6B
:10104000FD38D6E68022D2041343EAE6FF2900D118
:10105000CDE6FA185208530705D00F23171D134089
:10106000042B00D021E7D2084FE7002EBCD0624607
:1010700020E72C00FF200023BBE60124DB1B984661
:101080002C409BE6002F75D1002B00D096E08023EA
:101090000024FF20DB03ACE62C001F0005E7C04660
:1010A000FFFFFFFBFFFFFF7DFB185A0100D48DE01F
:1010B0004A4A5B081A40590700D18CE00F210B40C7
:1010C0000D39042BCFD00221171DEEE6002900D1E7
:1010D0001FE7821B1100002E00D1D1E68021C90438
:1010E0000F43D7E639002024D140A21A97407A1E38
:1010F00097410F432C000600DF1B56E700298DD0D7
:10110000811B002E00D170E71B290BDC8022D2044A
:10111000174376E70121FA08F7E62C006246C7E696
:101120000021F2E605330100DA08EEE6002B00D1DB
:1011300050E70124002162462C40E6E6DA1B530109
:1011400032D5920194092000FFF7A4F82300053856
:1011500083402C00012607E7002FDFD0002B17D09B
:101160008023DB039A4200D2A4E69C4500D3A1E68B
:1011700062469FE6002B0BD08023DB039A4200D20D
:1011800098E69C4500D395E6012462462C4091E602
:101190008023DB03FF2013432BE60020002B00D12C
:1011A00027E60021DA08B0E62C000121D208ACE6DF
:1011B000002A00D10EE70021D208A6E6802362466D
:1011C0000124DB03FF2013432C4012E60121DA083F
:1011D0009BE6310069E60221D20896E6FFFFFF7D1B
:1011E00043024A02400049005B0A520A090E000EFF
:1011F000FF2806D00020FF2902D1531E9A4110007B
:101200007047FE38002BFBD1F4E7C0464102420094
:10121000C30F490A0020120E7E2A03DD9D2A02DD3B
:10122000094A98187047802000040143952A07DC7A
:101230009620821AD1404842002BF3D10800F1E7F2
:10124000963A9140F7E7C046FFFFFF7F70B5002850
:1012500012D0C317C5185D40C40F2800FFF71AF855
:101260009E231B1A962B0FDC082838D0083885409F
:101270006D026D0AD8B202E0002400200025C005EE
:101280002843E407204370BD992B14DC421F95408E
:101290002A001549114055071CD00F252A40042A61
:1012A00018D00431CA08490115D59F235202181AD3
:1012B000550AC0B2E3E7020029001B3291404A1EE2
:1012C00091410522121AD5402A000A4306491140CD
:1012D0005507E2D1CA085202550AD8B2CFE76D02CB
:1012E0006D0A8E30CBE7C046FFFFFFFB10B5041E32
:1012F0000DD0FEF7CFFF9E231B1A962B0CDC08287F
:1013000034D0083884406402640AD8B201E0002076
:101310000024C005204310BD992B13DC421F9440CC
:10132000144A224061071CD00F212140042918D003
:101330000432D408520115D59F236402181A640A96
:10134000C0B2E6E7020021001B3291400A00511EA4
:101350008A410521091ACC401443064A22406107FC
:10136000E2D1D4086402640AD8B2D2E76402640A03
:101370008E30CEE7FFFFFFFBF0B557464E464546A1
:10138000DE46E0B51F000B031B0B16009846CA0F84
:101390004B000400924685B05B0D00D1C2E1CC4AFF
:1013A000934200D128E14146420FC9000A438021FF
:1013B00009041143C2009146C64A884693469B449D
:1013C0000023002501933C037A00FB0F3000240B1F
:1013D000520D009300D185E1BD4B9A4200D160E1EE
:1013E000BC4B9C46624493440A2D00DD14E1730F0C
:1013F000E4001C4380231B042343F0005246009961
:1014000000264A409246022D11DD0122AA40A62163
:101410001400C9000C400A4200D0FDE09021890070
:101420000A4200D0D4E18821114200D0EFE04946C1
:101430004A460904140C090C020C0F0015000004A4
:10144000000C654347430195B9462F000D00060087
:101450005543AC464D4666432D0CB4446544AE42FC
:1014600005D93E0080277F02BC46664401964F4660
:101470003F043F0C2E0C2D04ED1902951D0C1B048E
:101480001B0C00951D001F0065434F43AC46009D9B
:1014900069436C433D0CA946614449448C4503D9DA
:1014A00080256D02AC4664443F040D0C3F0C0904DA
:1014B000C919AC467518039545462E04360C2F0CF9
:1014C000350045437843804638006444AC462D0CD3
:1014D000A9465043724342444A44904503D980256B
:1014E0006D02A8464044150CA84665462D042D0CF7
:1014F000AC4635005D4312046244AC467B43009D1C
:10150000404498462B006E4365467B4346442D0C71
:10151000AD191F000093A84504D980235B029846AB
:1015200047440097039B019E98462B0446449846E7
:1015300063468E4289411B041B0C4344B618494242
:101540001B195F1896429241BC4652428046914612
:101550008C458941A3429B41E044C14449425B42DE
:10156000914592410B43804589412D0C494252429D
:101570000A435B199B18009A029994464A466344B1
:101580005B02D20D1A43904672020A43511E8A41F1
:10159000F60D16434A4652021643B146DB0154D4B7
:1015A0004D4A5A44002A00DC18E133005B0715D08D
:1015B0000F215B463140042910D04946081D48459B
:1015C00089418146494288444146C90106D5414680
:1015D000424A114080228846D2009A18404B9A42D3
:1015E00000DD2BE141464B464C07DB081C4352050E
:1015F0004B021B0B520D1AE042460243914600D0AB
:10160000E0E09B460223904608250193DBE6009A22
:101610009846924681460196019B022B00D10DE12E
:10162000032B35D0012B1BD10022002300241205EF
:101630001A435346DB071A432000110005B0F0BCE3
:10164000BB46B246A946A046F0BD0122730832400F
:1016500013434246D2071343994643465B089846D4
:1016600080225B46D2005A440133002A00DCB6E0F7
:1016700049464907A8D00F214846014004299CD17A
:10168000A2E70F2D00D1FDE0009BA0469A46B1468F
:10169000802342461B0313431B034C460C4A1B0B7F
:1016A000C5E70B4933008C462343E344002B77D135
:1016B000022129430A29AFDC5046009C6040824643
:1016C000002D00D10EE10D00002002269DE6C0464F
:1016D000FF07000001FCFFFFFF030000FFFFFFFE0C
:1016E000FE070000230033434BD0002C00D1BBE0A9
:1016F0002000FEF7CFFD030002000B3B1D20C31AA4
:101700003000D84011000300300008398C40884078
:10171000234359468A1A78498B4693440A2D00DCA4
:101720006CE679E743460343994623D04346002BB2
:1017300000D187E04046FEF7ADFD0B235B429C469F
:101740000200844411004046083988401D23804629
:1017500060461B1A2000D8400300404603439846C9
:1017600023008B409946644B00259B1A9B4600231F
:10177000019328E6002398469B46013304250193F4
:1017800021E6012215430A2D00DD45E75246009966
:101790004A409246022D00DC46E70020012634E64E
:1017A00003231D430A2D00DD6BE75346009A882171
:1017B00053400122AA409A4603262300114200D139
:1017C00035E624E79B46032381460C250193FAE581
:1017D00000239A468023494A1B0328E75B460121E0
:1017E000891A382900DD1FE71F295ADD1F204042D2
:1017F000821A4046D040202908D0414A94464246A9
:1018000063449A4013004A461A4391464A460721C8
:10181000531E9A410C00024300231440114209D088
:1018200008311140042960D0111D9142A4410A00E1
:1018300064426407D20814430022F8E6002300241F
:101840002E4AF4E6FEF726FD15239C46844402004A
:10185000634620321C2B00DC74E7002399462300EA
:101860000838834098467EE7FEF714FD0300020027
:10187000153320321C2B00DC40E73300083883404E
:10188000002046E7802342461B031A4200D1FFE6B0
:101890001C4200D0FCE6009A234392463400174ACB
:1018A000C5E6184A404694464A4663449840CA40B2
:1018B00010434A469A40531E9A4143460243CB4046
:1018C000510709D00F211140042905D0111D914263
:1018D000924152429B180A00190208D501220023A6
:1018E0000024A4E600230024A1E60024A2E75C076C
:1018F0005B021B0B9EE7C0460DFCFFFFFF070000CD
:101900003E0400001E04000070B5002816D0C31766
:10191000C5185D40C40F2800FEF7BCFC104B1B1A15
:101920005B055B0D0A2814DC02002E001532964080
:101930000B22121AD5402D032D0B03E000240023A7
:10194000002500261B052B43E40723433000190024
:1019500070BD0B3885402D0300262D0BF2E7C046E5
:101960001E040000F0B54B000F035B0D3D4C450F0E
:1019700083B07F0A5E1C2F4300900191CA0FC500FF
:1019800026420BD038495C18FE2C12DDFF200023C4
:10199000C0051843D207104303B0F0BD00203D43FB
:1019A000002BF5D0002DF1D08023DB03FF203B433B
:1019B000EEE7002C0CDD009BFF009B01581E8341CD
:1019C000690F3B430B43590725D1DB08E0B2DFE742
:1019D000210017312EDB80211E2009043943001B12
:1019E0001F282ADD02267642341B0E00E640340012
:1019F000202804D01D488446634499400D432B00A1
:101A0000591E8B4123430721180008400B421FD168
:101A10009B015B0ABCE70F211940042903D19B01FC
:101A20005B0AE0B2B4E704335901F8D5013400236E
:101A3000E0B2ADE700200023AAE70D4C1C192B00F3
:101A4000A540C340A140681E854129430B43DAE706
:101A50000F21002419400429E5D19B0120005B0AD5
:101A600096E7C046FE07000080FCFFFFA2FCFFFFD8
:101A700082FCFFFF07211A4A10B513688B43063911
:101A80000B4313608022174B520019680A438021D0
:101A90001A60C9001A680A42FCD05968124A1140FB
:101AA0008022D2010A435A601A6810490A401A601B
:101AB0009A680F490A4007219A609A688A439A6097
:101AC000084A313193681942FCD1936809490A48A0
:101AD0000B40936000F0F8FD074800F005FE10BDD4
:101AE0000020024000100240FF80FFFFFFC7FFFF01
:101AF000FFF0FFFFFF8FFFFF006CDC02F0B5DE465A
:101B000057464E464546E0B501278022FD4C9FB022
:101B1000236C52053B432364236CFB493B400193F8
:101B2000019BE36B10251343E363E36BA026134093
:101B3000C0220093009B0B6A12061B021B0A134370
:101B40000B620821F14BF6051A680A431A601A68FD
:101B50002A431A60FFF78EFF082200210EA803F027
:101B60004DFA1022002116A803F048FA0423626BF4
:101B700080201A436263626B400013400793079B07
:101B8000636B82463B436363636B3B400893089BF4
:101B90000223626B1A436263626B13400993099BD1
:101BA0008023DB4A1B029361B0618020C0019061F9
:101BB0002022B5629346B262E132FF32B2621493E0
:101BC00014AB80461900D2489146159700F042FBAD
:101BD0001495002514AB190030001597169517952C
:101BE000189500F037FB5B46149314AB19003000D6
:101BF000159716951795189500F02CFB80231493D4
:101C000014AB190030001595189500F023FB5346CE
:101C1000149314AB19003000159716951795189565
:101C200000F018FB4B46149314AB190030001597C5
:101C300016951795189500F00DFB4346149314ABB9
:101C40001900B348159716951795189500F002FBE3
:101C50006B4608216A460E919F8701233631521840
:101C600013700EA800F09CFAC0223368A949934370
:101C70003360F368A8489343A84AF360136E0B409F
:101C8000C1211366A64B89005A5802405A5040227F
:101C90001A600021303A0AA803F0B0F91822002196
:101CA0000EA803F0ABF91022002116A803F0A6F944
:101CB0008022636D52039B009B086365236C14A90B
:101CC00013432364236C300013400593059B636B1F
:101CD0003B436363636B14973B400693069B03236C
:101CE000159300F0B7FA80230B950C950D958D4D4B
:101CF000DB0528000AA90A9300F00CFA8023EA68A1
:101D00009B0313438022EB6092012B681342FCD0AB
:101D10000024F0232A600EA982480F930E94109499
:101D200011941294139400F00FFA01222B6990463B
:101D300093432B612B697C4A0227134007222B61B6
:101D40006B69914693436B616B69693293436B6135
:101D50006B686C3A93436B606B68934604329343B1
:101D60006B60AA68714B00211A4080235B05134306
:101D70000F22AB60AB6A14A89343AB626B696C4AE9
:101D8000062613401E326B61FF325E4D03F036F9BA
:101D90000C22002110A803F031F96B6D654A0EA9E1
:101DA00013406B656B6B64483B436B636B6B0F97C6
:101DB0003B400493049B40230E939A46434613965C
:101DC000119300F047FA80230E9343460EA95A4818
:101DD00011930F9710941294139600F03BFA8022FF
:101DE000C521EB6B92031343EB63EB6B890013404C
:101DF0004B4A0A930A9B53581B021B0A53508023D9
:101E00001B0413604D4B4E4E15932E2314A9300026
:101E1000149416941794189319941A9400F0DAFBFA
:101E2000802372689B0413437360F368454A002162
:101E30001340F360F368444A14A81340F360336816
:101E4000424A134033603368414A134033602822CA
:101E500003F0D4F81022002110A803F0CFF86B6D26
:101E60003C4A414613408022A0206B652B6C5201F6
:101E700013432B642B6CC00513400293029B6B6BC6
:101E80000B436B636B6B0E970B4003930EA9039B85
:101E90000F9700F0DFF9A0205B460EA9C0050E9356
:101EA00010941194129413940F9700F0D3F9A0207A
:101EB00053460EA9C0050E931094119412941394D6
:101EC0000F9700F0C7F982235B001593E023DB0036
:101ED000169380239B001993E93BFF3B1A934B46D3
:101EE0001494179418941B941C941B4C14A9200050
:101EF0001D9300F0A9FB102263689343636063683D
:101F00002CE0C0460010024000ED00E0000001405F
:101F100000080050FFFFFFF8FFFF00FF001802401D
:101F200000E100E000240140FFFFFFDFE8FFFF6F5A
:101F3000FFFEFFFFFFCFFFFF000400505D3E30209B
:101F40000054004001F8FFFFFF7FFFFFFFFFF7FF96
:101F5000FFFFFDFFFF3FFFFF00300140083A134342
:101F6000636001F0C3FA01F07BFDFCE7FEE7C046C9
:101F7000FEE7C0467047C0467047C046024A136835
:101F8000013313607047C046080400200822044B48
:101F9000D9680A4203D0DA60024B073A1A707047D8
:101FA000001802408800002008223A4B99690A4232
:101FB00009D0D9690A43DA619A69D20359D5022155
:101FC0001A680A431A600222324B99690A4202D007
:101FD00019680A4246D12F4A93695B0709D5536AAB
:101FE0002D4ADBB2117800292AD02C490B7000232E
:101FF0001370284A93699B0602D49369DB061ED5A9
:102000002021244BDA690A43DA61DA6910390A437C
:10201000DA61022219680A4209D019689143013A2B
:1020200019609A611D4A1378013BDBB213700422D8
:10203000184B19680A4202D0196891431960704719
:10204000164A11785F29D4D81178154843540121D4
:102050001078144B1954144B197013780133DBB2F8
:102060001370C6E70D4A11785F290AD900229A62D7
:10207000B1E704211A680A431A600122064B1A705C
:10208000A1E711780948415C996213780133DBB20A
:102090001370A0E7005400400000002084020020DC
:1020A000480300208802002086020020A8030020A8
:1020B0008022024B12059A607047C04600ED00E096
:1020C0000D488546FFF7F4FF002103E00B4B5B58FA
:1020D000435004310A480B4B42189A42F6D30A4A3D
:1020E00002E0002313600432084B9A42F9D302F055
:1020F00093FFFFF703FDFEE700180020106F0008B4
:10210000000000206C0000206C000020440500202E
:10211000FEE700008268030010B50120D20710D44A
:102120008C684A68D8682243CC6809682243054C09
:10213000204002430020DA601A69920092080A43A4
:102140001A6110BDC73FFFFFC268C2688268030002
:1021500070B50120D20718D4D8680A68CE680D6916
:102160004C69800212D432432A432243D8688C68D7
:1021700022430A4C20400243DA60DA68920203D517
:102180009A6A49680A439A62002070BD4868F0283C
:10219000E9D13243D8682A43EAE7C0463CC2FEFF91
:1021A00010B5027903000168002A03D000290BD181
:1021B000002010BD8020264B1A588A431A50043044
:1021C0001A588A431A50F3E74279012A19D0022A91
:1021D00021D00120002A09D184241D4A10598843A6
:1021E0001051043C10590843105100209B79002BDA
:1021F000DFD0022B24D0032B1AD0012B10D00120CA
:10220000D7E78024124A10598843105104341059DA
:1022100008431051E9E780240D4A10590843F4E7B8
:102220000B4B5A688A435A601A680A431A60C0E71F
:10223000074B1A680A431A605A680A435A60B8E79B
:10224000034B1A688A431A605A680A435A60B0E717
:1022500000180240F0B5DE4657464E464546E0B50A
:102260000F6881468B4638001F2285B07B0807D057
:1022700001242100400019400843013A5B08F8D1CD
:10228000904000D150E1FEF705F83B000600C34046
:1022900000D149E15B465B6801240193013B029355
:1022A00004E03B000136F34000D1C4E023003D00D0
:1022B000B3401D401F42F4D04B461B689A466B0842
:1022C000984600D129E128001F2221004000194032
:1022D0000843013A5B08F8D1904007D0FDF7DAFFD8
:1022E00003234000524683409A43924643462800C7
:1022F0001F222100400019400843013A5B08F8D131
:10230000904000D1ACE0FDF7C5FF019B4000524674
:10231000834013434A461360029B012B00D8B2E06E
:10232000D3689A464346002B00D1EFE0434628008D
:102330001F222100400019400843013A5B08F8D1F0
:10234000904007D0FDF7A6FF03234000524683408C
:102350009A439246434628001F222100400019401C
:102360000843013A5B08F8D1904000D183E0FDF7C3
:1023700091FF5B461B6940005246834013434A4627
:10238000D360019B022B8CD14346002B00D10CE182
:10239000434628001F220121AC460D0040001D408D
:1023A0002843013A5B08F8D15B465B69654690407B
:1023B000039304D0FDF76EFF072800DCC2E04B4614
:1023C0005B6A9A462B0A98466D0A00D1F7E02B000B
:1023D00040461F220121AC460D0040001D4028430D
:1023E000013A5B08F8D16546904007D0FDF752FFEF
:1023F0000F238000524683409A4392461F230121B7
:1024000042460800520028400243013B6D08F8D1C3
:102410001000984007D0FDF73DFF039B8000524617
:1024200083401A4392464B4652465A623B0001365D
:10243000F34000D03AE7019B013B012B08D85A46F4
:102440004B46D2685B687A43BB4313434A465360AA
:10245000002005B0F0BCBB46B246A946A046F0BD80
:102460004B4652461A60019B013B012B66D94B46F5
:10247000DB689A465AE74B465246DA60019B022BCC
:1024800000D00EE784E793689A464346002B32D08B
:10249000434628001F220121AC460D0040001D408C
:1024A0002843013A5B08F8D16546904007D0FDF714
:1024B000F1FE03234000524683409A43924643462E
:1024C00028001F220121AC460D0040001D4028437A
:1024D000013A5B08F8D16546904029D0FDF7DAFE55
:1024E0005B469B6840005246834013434A469360D4
:1024F000D3689A461AE7032352469A4313005A4672
:10250000926813434A469360D3689A46524603231F
:1025100080209A439246000629E7524603238020F2
:102520009A4392460006EEE65B465B68019382E7BB
:102530004B4652469A60DB689A46F7E64B469B68E4
:102540009A46A5E74B461B6A28009A461F22434637
:102550000121AC460D0040001D402843013A5B08B4
:10256000F8D16546904007D0FDF794FE0F23800018
:10257000524683409A4392461F2301214246080057
:102580006D0010400543013B5208F8D128009840E7
:1025900007D0FDF77FFE039B8000524683401A431D
:1025A00092464B4652461A627BE65B465B69802048
:1025B0000393136A0F2293439A460006E9E7D8076C
:1025C00000D430E752460F2380209A4392460006FB
:1025D00021E7C04630B5012403688D68A34303603A
:1025E000CB6802681B022B43144D2A40134303603F
:1025F0004B68134A036103682343036083680C69D3
:102600001340836082688B69D20A2343D20213434A
:102610008360002C04D0802382681B0213438360F4
:102620000368084A13400A68134303604368044A76
:1026300013404A6913434360002030BDFFE0FFFFB1
:10264000FF7FFFFFFFFFCFFF0368020070B501208F
:102650005B0629D44E680B6848693343CE68156819
:1026600033430E690C6A33438E6903433343CE69A7
:10267000000C3343114E234335402B431360536802
:102680008D680F4E284333401843802350601B0150
:102690009D4204D2802350685B0103435360802332
:1026A0009B019C4205D00020D36906490B40D361B1
:1026B00070BD8B8C00201361F6E7C0464000FFFF21
:1026C000FBF0FFFFFFF7FFFFFA2110B58900FDF7D0
:1026D0001BFD0022034B013858609A6005321A60D6
:1026E00010BDC04610E000E0014B18607047C046C6
:1026F0000400002070B5154C154BA2681A40183321
:102700001343A36002F04CFA0500A368002B16DB0C
:10271000A3680F4A0125134001221343A36002F06E
:102720003FFA0400094E33681D4206D102F038FA20
:10273000001B0128F7D9002000E0012070BD02F045
:102740002FFA401B0128E0D90020F7E700240140C0
:10275000E8FFFF7FF8B5104C104AA368050013404E
:1027600004221343A36002F01BFA04270600236827
:102770001F420AD0236C0A481B041B0C584309490A
:10278000FDF7C2FC28800120F8BD02F009FA801B89
:102790000128ECD90020F7E700240140E8FFFF7F83
:1027A000E40C0000FF0F000010B5080002F020FA52
:1027B00010BDC04610B5080002F01AFA10BDC046A0
:1027C000F0B5DE4657464E464546E0B587B00C1C90
:1027D00000919A46061C01920290FEF717FD45B241
:1027E000201CFEF713FD002147B2301CECB2FDF7B0
:1027F00029FD002802D0651EECB26DB200210098C0
:10280000FDF720FD002801D0013F7FB26434E4B21F
:10281000C72C00D914E13B006433DBB20020C72B86
:1028200000D906E1874A322100233224160006E04F
:102830000132D3B28B420BD8CC186210B056641060
:10284000E2B28542F4DC03DA013AD1B28B42F3D929
:10285000B34684460026322100233225584606E03E
:102860000132D3B299420BD35D186A1086566D10AF
:10287000EAB2B742F4DC03DA013AD1B29942F3D2B8
:1028800083466046FEF7E2FC071C3000FEF7DEFCE4
:102890005A46631C8146D0560393FEF7D7FC6A1C48
:1028A00090465A464146061C5056FEF7CFFC391C4E
:1028B0000490301CFEF752FA494683460498FEF70E
:1028C0004DFA011C5846FEF7F7F8011CFE20800562
:1028D000FDF724FF391C029F0590381CFEF73EFAD5
:1028E000494683460098FEF739FA391C8146301C68
:1028F000FEF734FA0099071C0498FEF72FFA4946B0
:10290000061C5846FEF7D8F8391C00904846FEF7DA
:10291000D3F8311C81465846FEF7CEF8311C834669
:10292000381CFEF7C9F86B005B19474A19015918A2
:10293000039B57180290F85615000491FEF786FC89
:102940004946FEF7B9F842465300434498461A01F7
:102950009044039B4544061CE856FEF777FC00991B
:10296000FEF7AAF8011C301CFDF7CAFC061C3857FC
:10297000FEF76CFC0299FEF79FF8011C301CFDF776
:10298000BFFC061C2857FEF761FC5946FEF794F879
:10299000011C301CFDF7B4FC0599FEF78DF8019A77
:1029A0002A4D10600498039B2E18F056FEF74EFC3B
:1029B0004946FEF781F8039B4544071CE856FEF79D
:1029C00045FC0099FEF778F8011C381CFDF798FCCF
:1029D000071C3057FEF73AFC0299FEF76DF8011C10
:1029E000381CFDF78DFC061C2857FEF72FFC5946B6
:1029F000FEF762F8011C301CFDF782FC0599FEF71A
:102A00005BF85346019C186020681149FEF754F8A2
:102A1000FE218905FDF774FC5346206018680C49B7
:102A2000FEF74AF8FE218905FDF76AFC5346186057
:102A3000012007B0F0BCBB46B246A946A046F0BD97
:102A40000020F6E7786500084C5B0008205100087C
:102A50006F12033BF0B5DE4657464E464546A0236F
:102A60008022E0B5DB05920095B09A6102F09EF8F5
:102A70000022F74BF74E1A7007000C3230000EA9F7
:102A800001F09EFFF44DF54B28600493002804D01C
:102A900040211A6813780B431370F14C0C2220006C
:102AA00011A901F033FC2860002806D0049B1A68A5
:102AB000802311785B420B431370EA4B18689846E9
:102AC000381AFEF713FCE849051CFDF7F5FF291C31
:102AD0000290E648FDF722FE43461F600CAB0C2235
:102AE0009B5E051C9B460CAB14229B5E9A460CAB6E
:102AF00016229B5E99460CAB18229B5E98460CAB47
:102B00001A229B5E0CAA1C21525E0CA90A20085EA8
:102B100003920193FEF79AFB071C300001F032FF8D
:102B2000391C0790281CFDF7C7FF0990300001F001
:102B30002BFF071C5846FEF789FB291CFDF7BCFF3D
:102B4000051C200001F044FC061C5046FEF77EFBED
:102B5000311CFDF7B1FFC64B1968FEF7FFF808906E
:102B6000200001F035FC061C4846FEF76FFB311CC7
:102B7000FDF7A2FFBF4B1968FEF7F0F8834620006F
:102B800001F026FC061C4046FEF760FB311CFDF7F9
:102B900093FFB94B1968FEF7E1F88046200001F079
:102BA00019FC061C0398FEF751FB311CFDF784FF4E
:102BB000B24B1968FEF7D2F8B14B059020001E68A1
:102BC00001F008FC041C0198FEF740FB211CFDF7F6
:102BD00073FF011C301CFEF7C1F809990690079895
:102BE000FDF76AFFFE24291C061C381CFDF764FF54
:102BF000A44FA4053B68A2461B78051C0C940D94B9
:102C0000DB0700D536E3A04B301C1B68191C994626
:102C1000FDF752FF5146FDF74FFF4946061C281CA1
:102C2000FDF74AFF211CFDF747FF029B0899051C91
:102C3000181C9A46FDF740FF944B99461968FDF71A
:102C40005FFB4B4659461860041C5046FDF734FFA5
:102C50008F4B9A461968FDF753FB53461860049B47
:102C600081461B6860008B4940089A46FDF7FEFAD2
:102C70000123002808D14B46580086494008FDF73B
:102C8000F5FA03005A1E93415246107801229043F0
:102C9000184353461870804B40461968FDF70CFFE7
:102CA00080467E4C0299200000F072FF41462000D1
:102CB0007B4A00F0F5FF23687A49181C9846FDF717
:102CC000DFFA002800D1C7E240467749FEF746F810
:102CD00080462060404602F045F801908346206817
:102CE00002F0A0F83B6882461B7803905B073AD558
:102CF0005946301CFDF7E0FE51468046281CFDF782
:102D0000DBFE011C4046FEF729F851468146301C87
:102D1000FDF7D2FE5946061C281CFDF7CDFE011C0E
:102D2000301CFDF7EDFA5946051C0598FDF7C4FE69
:102D30005146061C0698FDF7BFFE011C301CFEF72D
:102D40000DF8514680460598FDF7B6FE5946061C1B
:102D50000698FDF7B1FE011C301CFDF7D1FA434681
:102D60004E4606900593514B9B46029B584698460B
:102D7000191C00F00DFF4E4B414618009A4600F01A
:102D800007FF3B681B7898461807C00FFEF7BCFD8D
:102D900043469B0705D5049B1B681B78DB0700D4C3
:102DA00019E2444B444AFEF7E7FAFEF7DBFD311C1B
:102DB000021C584600F074FF3B6818780007C00FEB
:102DC000FEF7A2FD3C4A3B4BFEF7D6FAFEF7CAFDE2
:102DD000291C021C504600F063FF5B465B680793AA
:102DE00053465B680893354D01982B6898466B688D
:102DF00041469946FDF760FE4946061C0398FDF7DB
:102E00005BFE011C301CFDF7A9FF5B4619680290B0
:102E1000FDF776FA2A4F4146049038600398FDF793
:102E20004BFE4946061C0198FDF746FE011C301C6E
:102E3000FDF766FA524611680590FDF761FAA96838
:102E40008025061C78602D062068FDF759FA39E0C8
:102E50008800002060020020F40100201000002003
:102E60003C020020F8010020BD378635002474495B
:102E70000C020020080200200402002010020020A2
:102E800014020020140000200C000020000200208A
:102E9000FC010020CDCC4C3E080000208C0000201E
:102EA0006F12833ADB0F4940DB0FC9407C010020E1
:102EB000040100207493783FFA7E6ABC1802002057
:102EC00030020020AC46059906906144B8600F00BE
:102ED00048464946FDF7F0FD414681464046FDF72C
:102EE000EBFD011C4846FDF70BFA01F0F3FF8046AD
:102EF0006568291C281CFDF7DFFD4146FDF7DCFD58
:102F0000A168804689460498E349FDF7D5FDFEF7A0
:102F10007DF9E14903B2301C0493FDF7CDFDFEF7C6
:102F200075F9DE4906B206980596FDF7C5FDFEF770
:102F30006DF9291C02B2381C0692FDF7BDFD0799F8
:102F4000FDF7DEF9D649FDF7B7FDFEF75FF9291C5D
:102F500003B202980793FDF7AFFD0899FDF7D0F98A
:102F6000CF49FDF7A9FDFEF751F9CE4902B2281C61
:102F70000892FDF7A1FDFEF749F905B2381C5F463E
:102F800049460995FDF798FDB968FDF7B9F9039E23
:102F90000199051C301CFDF7E1FE4146FDF78CFD53
:102FA000011C281CFDF7ACF9BF49FDF785FDFEF7B4
:102FB0002DF95546494607B202980397FDF77CFD67
:102FC000A968FDF79DF9311C051C0198FDF798F9DA
:102FD0004146FDF771FD011C281CFDF7BFFEB249FB
:102FE000FDF76AFDFEF712F900B2B04901904846BC
:102FF000FDF762FDFEF70AF95E4605B2F06802953C
:1030000001F068FFA449FDF757FDFEF7FFF85746AA
:1030100006B2F8680A9601F05DFF9F49FDF74CFD86
:10302000FEF7F4F807B2E06801F054FF9B49FDF7A2
:1030300043FDFEF7EBF8B94607B2B8465F46F869BC
:1030400001F048FF9649FDF737FDFEF7DFF85346DC
:1030500007B2D86901F03EFF9149FDF72DFDFEF75B
:10306000D5F806B2E06901F035FF8E49FDF724FD81
:10307000FEF7CCF85B4605B2D86A01F02BFF8A490F
:10308000FDF71AFDFEF7C2F8524603B2D06A0B9361
:1030900001F020FF8449FDF70FFDFEF7B7F802B2FB
:1030A000E06A934601F016FF8049FDF705FDFEF743
:1030B000ADF820227E4C049903B2A1548AB221219A
:1030C000120A625422220599A1548AB22321120ABB
:1030D000625424220699A1548AB22521120A62540C
:1030E00026220799A1548AB22721120A6254282263
:1030F0000899A1548AB22921120A62542A220999F4
:10310000A1548AB22B21120A62542C2203990198ED
:10311000A1548AB22D21120A62542E22A05482B2E6
:10312000120A02316254302202994846A1548AB2EE
:103130003121120A625432220A99A1548AB23321EF
:10314000120A62543422A05482B2120A023162542A
:1031500040463622A05482B2120A0231625438220A
:10316000A754BFB23F0A0132A7540132A654B6B2E7
:10317000360A0132A6540132A554ADB20B992D0A7C
:103180000132A5540132A1548AB23F21120A62547D
:1031900059464022A1548AB24121120A6254422265
:1031A0002000A3549BB21B0A0132A35411A9373A41
:1031B000443001F055FF20000C220EA9503001F0E0
:1031C0004FFF01223B4B1A7015B0F0BCBB46B24614
:1031D000A946A046F0BD384B384AFEF7CDF8FEF7B9
:1031E000C1FB0599021C584600F0FAFD3B681878AF
:1031F0000007C00FFEF788FB2F4B304AFEF7BCF8E4
:10320000FEF7B0FB0699021C504600F0E9FD700085
:10321000690049084008FDF773F8FA218905FDF7B0
:103220002FF8002852D15B4652465B68526858001E
:1032300051004908400807930892FDF761F8FC2106
:103240008905FDF709F8002840D10221049B1A687E
:1032500013780B431370C6E540461949FCF7F2FF9B
:10326000002800D136E540461649FDF749F880466A
:1032700020602FE51449FDF71FFC1349041C301C86
:10328000FDF71AFC0DAB211C0CAAFFF799FA0C9B59
:103290000D9C9A46B7E4C046CDCC4C4583F92246F6
:1032A000CDCCCC45FAAE6A447FD65043D4E2264119
:1032B000E802002085020020BF7D4D3F92CB7F4871
:1032C000DB0F49C0DB0FC940E17A1D423B6818782B
:1032D0000007C00FFDF7BAFF0E49FDF7EDFB311CEB
:1032E000021C584600F0DCFC3B6818780007C00F51
:1032F000FDF7ACFF0749FDF7DFFB291C021C504618
:1033000000F0CEFC0221049B1A6813788B431370E3
:1033100063E5C046A69BC43BF0B5DE464E46574625
:103320004546E0B58BB0040001F03AFC0600002CE5
:1033300000D1BCE000232500002799469B4601935D
:1033400002935F4B059403935E4B9A465E4B9846FF
:103350005E4B049301F024FC801B0A2800D99DE0F9
:1033600053461B78002BF5D000235246137001F012
:1033700017FC07AC06000C222100039800F0C6FFE2
:1033800043461860002806D0514B1A6880231178F4
:103390005B420B4313700622A35E013D9B4408224F
:1033A000A35EEDB299440022A35E029A94469C4427
:1033B000634602930222A35EFF180422A35E019AD1
:1033C00094469C4463460193049B9D71002DC1D19A
:1033D000059C5846FDF73AFF82464846FDF736FF02
:1033E00081460298FDF732FF80463800FDF72EFF38
:1033F000071C0198FDF72AFF051C01F0D7FB354B90
:103400001860039800F0E6FF061C2000FDF71EFF81
:10341000011CFE208005FDF781F92F4B041C9B4603
:103420005146301CFDF748FB211CFDF745FB5B4670
:103430001860039B18009A4600F0CCFF4946FDF740
:103440003BFB211CFDF738FB244E3060504600F05A
:10345000BFFF4146FDF730FB211CFDF72DFB204E41
:103460003060504600F0B4FF391CFDF725FB211CED
:10347000FDF722FB1B4E3060504600F0A9FF291CCF
:10348000FDF71AFB211CFDF717FB174E30600BB040
:10349000F0BCBB46B246A946A046F0BD0C4B059C0D
:1034A0001A68802311785B420B43137091E7002563
:1034B000034BA846A946AA462F1C03939DE7C04686
:1034C0003C02002088000020F4010020A803002016
:1034D00010000020F801002014020020100200203B
:1034E0000C0200200802002004020020022170B516
:1034F0007A4A82B0136810240B431360784A3E3135
:10350000136820250B43136000F0B0FD0821754BB4
:103510001A680A431A601A6822431A601A682A4312
:103520001A60FFF7E7F880226F4BD2019A6280227F
:10353000120232209A6201F05BFB6B46981DFFF786
:1035400009F9002800D1C3E0684A6B469446E1229D
:10355000DB88520063449BB2934200D9B8E0A023B9
:10356000DB051E009D61642001F0A2FB1420B46203
:1035700001F09EFB7820B46101F03AFB5C4C002323
:1035800020223100200001F031FA002800D194E01F
:10359000584C20604421584B1A6813788B430B43D6
:1035A00013708022A021554D012328005200C90527
:1035B00001F01CFA002800D175E020604E4B1A681B
:1035C000802311785B420B4313704D4D002128007E
:1035D00001F0DCF92060002806D04821464B1A682B
:1035E00013788B430B431370C722C721280001F0C7
:1035F0005FF92060002806D050213F4B1A681378ED
:103600008B430B4313703F4D0121280000F0A6FDB2
:103610002060002806D0384B1A68802311785B425E
:103620000B4313700621280000F0F8FD20600028ED
:1036300006D0314B1A68802311785B420B4313701C
:103640000621280000F0D0FD2060002806D02A4B7B
:103650001A68802311785B420B43137006212800FF
:1036600000F02AFE2060002806D0234B1A68802331
:1036700011785B420B43137002220021280000F0F6
:1036800035FE2060002806D01B4B1A688023117875
:103690005B420B431370642001F0AAFA4020FFF74D
:1036A0003BFE02B070BD28002900183800F01AFD5A
:1036B0002060002800D188E780E72000210018382A
:1036C00001F0D0F80B4C2060002800D169E761E7D9
:1036D0000123084C5B4223605CE7C04610E000E039
:1036E0000030014000540040000800505CF9FFFF2A
:1036F00078020020F4010020100000205402002075
:10370000600200203C020020F0B5DE4657464E46DF
:103710004546E0B5BD4B8FB01A78002A00D1FCE0D9
:10372000BB498A69120403D58A69D20300D4F4E044
:103730000022B84C1A70E379002B0CD0B64BB74F6F
:10374000DB79E271FB71B64B1B681B78DB0700D598
:1037500026E10023FB71A37B002B05D0AE4AAF4BC3
:10376000927B9A730023A373E37B002B06D0002285
:10377000A94BDB7BE273DB0700D5FEE0A379002BCE
:1037800000D0EDE02379002B11D0A34BA54D187983
:10379000A24B1871002340B22371FDF757FDA249D7
:1037A000FDF78AF9FE218905FCF7AAFD28606379F7
:1037B000002B11D0984B9D4D5879984B5871002390
:1037C00040B26371FDF742FD9749FDF775F9FE219F
:1037D0008905FCF795FD286000252020212122265F
:1037E000235C2554625C65541A40A35DA5551340C3
:1037F00023229446A25C24271A406346E554E35DE5
:10380000E555134025229246A25C91461A40904607
:103810005246A5544A461A4200D185E062467E4B84
:1038200098469E5D9B5C42461B0233431BB2994601
:1038300056464346DB5D975D7D4E3F021F43135C5A
:10384000505C3FB20002184300B2FDF7FFFC79491B
:10385000FDF732F930604846FDF7F8FC7549FDF791
:103860002BF970603800FDF7F1FC7349FDF724F97E
:10387000B060237C627C25741A40A37C657413407D
:10388000E27CA5741A40237DE5741340627D2575A2
:1038900065751A4200D1B6E042464346D77C9B7C10
:1038A000547D3F021F43137D507C24021C43137C34
:1038B0000002184300B2FDF7C9FC5E49FDF7FCF8B1
:1038C0005E4D3FB228603800FDF7C0FC5949FDF756
:1038D000F3F824B268602000FDF7B8FC5649FDF704
:1038E000EBF8A8602A006B4683CA83C30BAC0ECEEC
:1038F000200000F013FB524B0B9A524C1A60524BB3
:103900000C9A06AE1A60514B0D9A30001A600ECD1B
:1039100000F06AFB230013CE13C30FB0F0BCBB460C
:10392000B246A946A046F0BD4246237C2274627C82
:1039300041461A4043466374A37C13404246A27436
:10394000E27C1A404346E374237D134042462275CD
:10395000627D61751A42E0D02F4B354E98469BE749
:103960002D4B98792D4B98710023A371FFF7D4FC50
:103970002379002B00D11AE707E70223274F3448A9
:103980000225FB7300F028FD002839D008231D43D1
:1039900002239D43FD7301F009F92E4B1860EDE6FB
:1039A000274B18009B4600F0E5F8274B18009A4675
:1039B00000F0E0F8254B1800059300F0DBF800223A
:1039C0006B461B4E904632607260B2600BAA914605
:1039D0001A4D07CD07C348460ECE00F09FFA5A464F
:1039E0000B9B13604A465368524613604A469368DD
:1039F000059A13604246184B1A60184B1A60A8E6E5
:103A000004231D43C4E70D4D6CE7C0468602002029
:103A1000005400408802002048030020A803002032
:103A2000180000200C0000206F12833A08000020CC
:103A3000300200200000A039DB0FC938240200202A
:103A40007C01002018020020040100208C000020CE
:103A50003C020020F801002000020020FC010020B0
:103A600010B5104C2378002B0FD00F4A93691B041C
:103A700014D43C220D480E4901F0F2FAA023802212
:103A8000DB0592009A6200232370FFF73DFE094B8D
:103A90001B78002B01D0FEF7DDFF10BD9369DB031F
:103AA000E7D5F2E78502002000540040C80300205B
:103AB00008030020880000200E4B0F4A70B50F4EFF
:103AC0000F4D1A600F4C104B104A211C1A60104801
:103AD000331C2A1C00F028F8331C2A1C211C0D481A
:103AE00000F022F80C4B0D4A0D490E4800F01CF86E
:103AF00070BDC046600200201C51000817B7D138C5
:103B0000BD37863577CC2B323C020020105100089F
:103B10007C01002004010020CDCCCC3D95BFD633E4
:103B2000FFE6DB2E8C000020F8B504000F1C161CED
:103B300000210C221D1C01F061FA2000242200212A
:103B40000C3001F05BFA20001C220021343001F01F
:103B500055FA20001C220021583001F04FFAFE23B4
:103B60009B0520006765666665672363236423659C
:103B7000F8BDC04610B504000C22002101F03EFA49
:103B80002000242200210C3001F038FA10BDC0467C
:103B9000F0B5D6464F464646C0B546680400416378
:103BA0004164301C0D1CFCF787FF011C2068FCF7EA
:103BB000A7FBA1682060281CFCF77EFF311CFCF7E6
:103BC0009FFB2369616D6060E0689946FCF798FB94
:103BD000A669071C311C4846FCF792FB291CFCF720
:103BE0006BFF011C381CFCF78BFBE3696769191C30
:103BF000E060381C9846FCF783FB291CFCF75CFF4F
:103C00004946FCF77DFB236A291C2061181C9A4653
:103C1000FCF752FF391CFCF773FB636A6061191CE7
:103C200040469946FCF76CFB291CFCF745FF311C0C
:103C3000FCF766FBA76AA061391C5046FCF760FBE5
:103C4000291CFCF739FF616E061C4046FCF758FB47
:103C5000011C301CFCF754FBE36A291CE061181CB2
:103C60009846FCF729FF061C011C5046FCF748FB50
:103C7000291C2062381CFCF71FFF4946FCF740FB5B
:103C8000311C6062381CFCF73BFB4146A062606F50
:103C9000FCF736FBE062E0BCBA46B146A846F0BD90
:103CA000F0B5DE4657464E4645460400E0B563682B
:103CB00083B0081C191C151C9B46FDF74FF8E369DF
:103CC000071C191C281C9846FCF71AFB011CFE2037
:103CD0008005FCF723FD2369051C191C9A46FCF797
:103CE000EBFE291C061C4046FCF7E6FEA36A814653
:103CF000191C281C0193FCF7DFFE311C051C381C25
:103D0000FCF7DAFE011C2068FCF7FAFA494620604D
:103D1000381CFCF7D1FE5946FCF7F2FA291C60600A
:103D2000381CFCF7C9FE011CA068FCF7E9FAA7697A
:103D3000A060391C301CFCF7BFFE011CE068FDF7D9
:103D40000DF8311CE0604046FCF7B6FE011C504601
:103D5000FDF704F8236A2061191C301C9A46FCF711
:103D6000ABFE011C6069FCF7F9FF6061FE2049466B
:103D70008005FCF7F3FF061C011C381CFCF79CFEB9
:103D8000311C071CA0614046FCF796FE311C8046A2
:103D9000E0615046FCF790FE391C061C2062281C8E
:103DA000FCF78AFE011C606AFCF7D8FF414660629E
:103DB000281CFCF781FE011C0198FCF7CFFF311C89
:103DC000A062281CFCF778FE011CE06AFCF7C6FF25
:103DD000E06203B0F0BCBB46B246A946A046F0BDC7
:103DE000F0B5DE4657464E4645460400E0B5A368AA
:103DF00083B0081C191C151C9B46FCF7AFFFE76A33
:103E00008046391C281CFCF77BFA011CFE2080052B
:103E1000FCF784FC63698146191C9A46FCF74CFE4A
:103E2000236A061C191C48460193FCF745FE4946C7
:103E3000051C381CFCF740FE311C81464046FCF74F
:103E40003BFE011C2068FCF75BFA291C2060404601
:103E5000FCF732FE011C6068FCF752FA49466060CC
:103E60004046FCF729FE5946FCF74AFA636AA0600F
:103E7000191C301C9B46FCF71FFE011CE068FCF778
:103E80006DFFA36AE060311C181C9846FCF714FE15
:103E9000011C2069FCF762FF311C2061381CFCF713
:103EA0000BFE011C5046FCF759FF59466061281C67
:103EB000FCF702FE011CA069FCF750FF291CA06161
:103EC0004046FCF7F9FD011CE069FCF747FF291C9F
:103ED000E061381CFCF7F0FD011C0198FCF73EFF87
:103EE0002062FE2049468005FCF738FF051C011CB6
:103EF0005846FCF7E1FD291C60624046FCF7DCFDFA
:103F0000291CA062381CFCF7D7FDE06203B0F0BCAE
:103F1000BB46B246A946A046F0BDC046F0B5DE4657
:103F200057464E464546E0B585B00393039B0500D2
:103F300098460E9B40469B460F9B029299460191E4
:103F400000F010FF061C404600F06CFF5946071CAD
:103F5000301CFCF7B1FD0199FCF7D2F949468246C5
:103F6000381CFCF7A9FD011C5046FCF7F7FE59462A
:103F70002860381CFCF7A0FD4946071C301CFCF7E4
:103F80009BFD011C381CFCF7BBF90299FCF7B8F942
:103F9000109968604046FCF7B3F91049041CFCF71F
:103FA0006FF900280DD0201C0D49FCF7D7FE041C2A
:103FB0002800AC6005B0F0BCBB46B246A946A0469E
:103FC000F0BD0849201CFCF73DF90028F0D0201C6A
:103FD0000349FCF795F9041CEAE7C046DB0F4940AA
:103FE000DB0FC940DB0F49C0F0B5D6464F46464609
:103FF000C0B584B001910393019B0292039D994641
:10400000029B0400281C984600F0ACFE061C281CED
:1040100000F008FF4146071CFCF74EFD494682466A
:10402000301CFCF749FD011C5046FCF769F9802360
:104030001B069C46604449462060381CFCF73CFD4A
:104040004146071C301CFCF737FD011C381CFCF7EF
:1040500085FE80231B069C46606020006544A560A9
:1040600004B0E0BCBA46B146A846F0BD0023144AED
:1040700010B51370134A144C1370144A00211370B6
:1040800020005D2200F0BAFF60220021104800F0FD
:10409000B5FF602200210F4800F0B0FF6022002130
:1040A0000D4800F0ABFF0D4B033C238010230F2184
:1040B000A3700B4B1A6813788B430B43137010BD1E
:1040C0008402002086020020AB030020850200202D
:1040D00048030020E8020020880200205F11000051
:1040E00014000020F0B5040083B0081E33D0002374
:1040F00001AD61602A000F212B7000F0BDFC00288B
:1041000009D12B786C2B26D12A001021606800F091
:10411000B3FC002801D003B0F0BD0F2640272A7859
:10412000102132403A432A706068D2B200F064FC39
:104130000028F0D12A001121606800F09DFC0028C1
:10414000E9D12B7811211E403E4360682E70F2B2F7
:1041500000F052FCDFE701204042DCE730B583B0DD
:1041600004000D004068102101AA00F085FC002821
:1041700001D003B030BD6A4603230C2112792B40D5
:104180009B008A431A436B4660681A710431D2B2AD
:1041900000F032FC0028ECD1022D0CD006D8002D06
:1041A0000CD0094A094BA260E360E2E7032D08D175
:1041B000074A084BF7E7084A084BF4E7084A094B57
:1041C000F1E701204042D4E740DAFF39E7D09C3BD9
:1041D00040DA7F39E7D01C3B40DAFF38E7D09C3A21
:1041E00040DA7F38E7D01C3A30B583B004000D00C8
:1041F0004068102101AA00F03FFC00280CD16B465A
:104200000F221B792D011A406B462A431A71102187
:104210006068D2B200F0F0FB03B030BD30B583B0BF
:1042200004000D004068112101AA00F025FC0028BF
:1042300001D003B030BD6A4607230E2112792B400E
:104240005B008A431A436B4660681A710331D2B22D
:1042500000F0D2FB0028ECD1062D11D80B4BAD009D
:104260005B599F460A4A0B4B22616361E1E70A4AA8
:104270000A4BF9E70A4A0B4BF6E70B4A0B4BF3E7FD
:1042800001204042D5E70A4A0A4BEDE7AC65000839
:10429000295C8F3D7922A03A295C0F3D7922203A92
:1042A000295C8F3C7922A039295C8F3B7922A03888
:1042B000295C0F3C7922203930B583B004000D0011
:1042C0004068112101AA00F0D7FB00280CD16B46F1
:1042D0000F221B792D011A406B462A431A711121B6
:1042E0006068D2B200F088FB03B030BD10B5002981
:1042F00006D0012906D10D31406800F07DFB10BDCC
:104300000D21F9E701204042F9E7C04600B585B02C
:1043100000290DD00B2A0BD90023039303AB0A000D
:104320004068222100930C2300F0E6FB05B000BD9D
:1043300001204042FAE7C046F0B505000C0087B006
:10434000002941D0052A3FD9002303AE029302ABD6
:1043500040683200009322210C2300F0CDFB071EA1
:104360002FD10023F05EFCF771FF2969FCF7A4FB55
:1043700020600223F05EFCF769FF2969FCF79CFBD3
:1043800060600423F05EFCF761FF2969FCF794FB91
:10439000A0600623F05EFCF759FFA968FCF78CFBD0
:1043A000E0600823F05EFCF751FFA968FCF784FB8E
:1043B00020610A23F05EFCF749FFA968FCF77CFB4B
:1043C0006061380007B0F0BD01277F42F9E7C046C1
:1043D00040697047C0687047F0B54E464546DE46B6
:1043E00057460023E0B595B00EAD08AE0400089323
:1043F00040682A00222100960C3300F07DFB002843
:1044000016D12B88EA889B462369298999466B88AF
:1044100068899A46AB8803920493A3680591029039
:104420002A0014216068984600F026FB002806D078
:1044300015B0F0BCBB46B246A946A046F0BD0F275A
:1044400005232A781421BA431A432A706068D2B22D
:1044500000F0D2FA0028EBD123680A2120001B6863
:104460009847062231002000FFF766FF0028DFD1C1
:104470002A001421606800F0FFFA0028D8D10E232A
:104480002A781421BA431A432A706068D2B200F025
:10449000B3FA0028CCD123680A2120001B68984772
:1044A000062229002000FFF747FF0028C0D1142171
:1044B000606807AA00F0E0FA0028B9D16B461A7FBD
:1044C0001421BA431A776068D2B200F095FA002836
:1044D000AED15C4620B2FCF7B9FE4946FCF7ECFAD7
:1044E000011C041C0898FCF739FC7C49071CFBF7ED
:1044F000A9FE002800D0EDE07949381CFBF7B6FE94
:10450000002800D0E6E00E99201CFCF727FC734938
:10451000041CFBF797FE002800D0DBE07049201C4C
:10452000FBF7A4FE002800D0D4E0544620B2FCF7EC
:104530008DFE4946FCF7C0FA011C041C0998FCF7E3
:104540000DFC6649071CFBF77DFE002800D0C1E08A
:104550006349381CFBF78AFE002800D0BAE069687E
:10456000201CFCF7FBFB5D49041CFBF76BFE0028DD
:1045700000D0AFE05A49201CFBF778FE002800D09D
:10458000A8E06B461020185EFCF760FE4946FCF779
:1045900093FA011C041C0A98FCF7E0FB4F49071C26
:1045A000FBF750FE002800D094E04D49381CFBF783
:1045B0005DFE002800D08DE0A968201CFCF7CEFB32
:1045C0004649041CFBF73EFE002800D082E0444927
:1045D000201CFBF74BFE00287CD16B460C20185E9C
:1045E000FCF734FE4146FCF767FA011C071C0B98E8
:1045F000FCF7B4FB3B49041CFBF724FE002869D1FF
:104600003949201CFBF732FE002863D1E968381CC9
:10461000FCF7A4FB3349041CFBF714FE002859D116
:104620003149201CFBF722FE002853D16B46142091
:10463000185EFCF70BFE4146FCF73EFA011C041C19
:104640000C98FCF78BFB2749071CFBF7FBFD0028A8
:1046500040D12549381CFBF709FE00283AD12969C9
:10466000201CFCF77BFB1F49041CFBF7EBFD00281B
:1046700030D11D49201CFBF7F9FD00282AD16B46DB
:104680000820185EFCF7E2FD4146FCF715FA011C14
:10469000041C0D98FCF762FB1249061CFBF7D2FDC7
:1046A000002817D11049301CFBF7E0FD002811D17C
:1046B0006969201CFCF752FB0A49041CFBF7C2FD88
:1046C000002807D10849201CFBF7D0FD431E984164
:1046D0004042ADE601204042AAE6C0460000164333
:1046E00000002F44CDCC4C3D9A99D93FF0B52F4EC8
:1046F0000400370083B0B51E263702E00236BE4202
:1047000008D072783178606800F076F90028F5D02A
:1047100003B0F0BD6B46DE1DD871320058216068D1
:1047200000F0AAF90028F3D1337860687F2B1BD8FA
:104730000422582100F060F90028E9D18022572195
:10474000606800F059F90028E2D12F00184E6E374A
:1047500002E00236BE4215D072783178606800F00F
:104760004BF90028F5D0D3E78422582100F044F912
:104770000028CDD100225721606800F03DF90028C3
:10478000E3D0C5E72368642120001B6831359847D2
:10479000FF35084E02E00236AE42B9D07278317869
:1047A000606800F029F90028F5D0B1E7CA65000873
:1047B000F265000838660008F0B583B06B469E1DB0
:1047C000002304000B250827337013E00022152175
:1047D000606800F011F9002815D12368012120003C
:1047E0001B68984732001521606800F045F90028E1
:1047F00009D13378BB43B72B07D0013DEDB2002D73
:10480000E4D10120404203B0F0BD2000FFF76EFF6D
:104810000028F8D16B4602216068DA1D00F02CF9FF
:104820000028F0D16B4603216068DA1D00F024F9FE
:104830000028E8D16B4604216068DA1D00F01CF9FD
:104840000028E0D16B4605216068DA1D00F014F9FC
:104850000028D8D16B4606216068DA1D00F00CF9FB
:10486000D1E7C04630B5040083B0081E1CD06B46AB
:10487000DD1D002361602A0000212B7000F0FCF890
:1048800000280FD12B784F2B0ED12A005F216068B2
:1048900000F0F2F8002805D12B78B02B04D12000CD
:1048A000FFF78AFF03B030BD01204042FAE7C0465F
:1048B000F0B5C64600B505000F00160082B0C72946
:1048C0005AD8C72A58D8CAB24068482100F094F88C
:1048D000041E04D0200002B080BCB846F0BD002207
:1048E0004921686800F088F8041EF3D14A216868FD
:1048F000F2B200F081F8041EECD100224B2168686E
:1049000000F07AF8041EE5D16B4647216868DA1D8D
:1049100000F0B2F8041EDDD16B46DA7901231A43A8
:104920006B4647216868DA7100F066F8041ED1D141
:104930006423781C58439846FCF788FC011CFE2031
:104940008005FBF7EBFE4346071CA860701C58432C
:10495000FCF77CFC011CFE208005FBF7DFFE08490C
:10496000061CE860381CFCF7A7F805492861301CD4
:10497000FCF7A2F86861ADE701246442AAE7C046EB
:10498000A913D03C006970474069704730B583B0C7
:1049900004000D1C40685B2101AA00F06DF800289E
:1049A0000CD16A461F2312799D431A406B462A4355
:1049B0001A715B216068D2B200F01EF803B030BDFE
:1049C00000B585B000290DD00B2A0BD90023039325
:1049D00003AB0A004068162100930C2300F08CF80A
:1049E00005B000BD01204042FAE7C04601604260C8
:1049F000037200207047C046F0B5C6460368150034
:104A0000426800B59A627F230B400121027A194C5B
:104A10004A40D2011343DBB22373070000F0C0F811
:104A20008023060098464246A3681A420CD000F044
:104A3000B7F8801B0128F6D901203B687A6840420C
:104A40009A6180BCB846F0BD237B257300F0A8F8BE
:104A500080260400074DAB681E4205D12B7B7A6887
:104A60003B6800209A61ECE700F09AF8001B0128EF
:104A7000F1D9E1E700300140F0B5C6460368904641
:104A8000426800B59A627F23027A0B40D201134339
:104A9000184CDBB22373060000F082F88025070073
:104AA0002B00A268134015420CD000F079F8C01B0F
:104AB0000128F5D901203368726840429A6180BCB0
:104AC000B846F0BD227B237300F06AF8802704000B
:104AD000084DAB681F4207D142462B7B0020137064
:104AE000336872689A61EAE700F05AF8001B0128FF
:104AF000EFD9DFE700300140F0B5D64646464F46D5
:104B0000824614001D0042680368C0B59A6253468D
:104B10007F201B7A0840DB011843204EC0B230735F
:104B200000F03EF88023070098464246B3681A42D8
:104B300010D000F035F8C01B0128F6D95346524674
:104B400001201B68526840429A61E0BCBA46B146F7
:104B5000A846F0BD337B002D19D0A846002380273E
:104B600099460E4DA04404E02B7B2370013444454C
:104B70000DD04B462B7300F013F80600AB681F42B4
:104B8000F2D000F00DF8801B0128F7D9D6E7534684
:104B900052461B68526800209A61D6E700300140F7
:104BA000014B18687047C046080400200E4A0F4B9E
:104BB000106870B59D6814689968A04200D12900FA
:104BC0000A4A53685B1A5801C01A51688000C0181D
:104BD0000131C000FBF798FA63011B1B9B001B19F6
:104BE000DB00C01870BDC0460804002010E000E0E3
:104BF000F8B54746CE462C4D2C4B2968060080B5AB
:104C000098682F689A68B94200D10200274C6368FF
:104C100061689B1A5801C01A8000C018C000013199
:104C2000FBF772FA81467B01DB1B9B00DB19DB0083
:104C3000994473019B1B9B009E19F300984613E057
:104C40009B1A5801C01A61688000C018C000013169
:104C5000FBF75AFA4A4673019B1B9B009B19DB002A
:104C60009B1AC01880451AD92F68A1682E68A268BF
:104C70006368B742E4D15B1A5801C01A61688000CA
:104C8000C018C0000131FBF73FFA4A467B01DB1B2D
:104C90009B00DB19DB009B1AC0188045E4D8C0BC20
:104CA000B946B046F8BDC0460804002010E000E058
:104CB000F8B5CE464746294D294B29688146986864
:104CC0002E6880B59A68B14200D10200244C636816
:104CD00061689B1A5801C01A8000C018C0000131D9
:104CE000FBF712FA804673019B1B9B009B19DB00AC
:104CF000984413E09B1A5801C01A61688000C018DC
:104D0000C0000131FBF700FA42467B01DB1B9B0030
:104D1000DB19DB009B1AC01881451AD92E68A168DF
:104D20002F68A2686368BE42E4D15B1A5801C01ABA
:104D300061688000C018C0000131FBF7E5F9424608
:104D400073019B1B9B009B19DB009B1AC0188145BC
:104D5000E4D8C0BCB946B046F8BDC046080400203F
:104D600010E000E0F0B5C6462B4900B5061CFBF785
:104D7000A3FEFA218905FBF7C3FA051CFCF746FAE6
:104D800026490400301CFBF75DFA431E9841241AA3
:104D90002000FCF75BFA011C281CFBF7DFFF8821D1
:104DA000C905FBF789FE041CFBF792FA802385B244
:104DB0009B009D4223D22800FCF798FA011C8046F4
:104DC000201CFBF7CBFF6E1C071CFE21404689050B
:104DD000FBF796FA211CFBF7C1FF114CAD002959D6
:104DE000FBF76AFEB6003159051C381CFBF764FE60
:104DF000011C281CFBF784FA80BCB846F0BD882152
:104E0000201CC905FBF7AAFF0023012600259846B0
:104E1000041C071CD9E7C04683F9223EDB0FC9BF3B
:104E2000F8660008F0B5C646284900B5FBF744FE11
:104E3000041CFCF7EBF900210500201CFBF702FA2B
:104E4000431E98412D1A2800FCF700FA011C201C73
:104E5000FBF784FF8821C905FBF72EFE041CFBF736
:104E600037FA802385B29B009D4223D22800FCF7AD
:104E70003DFA011C8046201CFBF770FF6E1C071CCE
:104E8000FE2140468905FBF73BFA211CFBF766FF34
:104E90000F4CAD002959FBF70FFEB6003159051C28
:104EA000381CFBF709FE011C281CFBF729FA80BC03
:104EB000B846F0BD8821201CC905FBF74FFF002331
:104EC000012600259846041C071CD9E783F9223ED9
:104ED000F866000870B5041C00F01AF8211C051CC7
:104EE000201CFCF77DF9002805D10021201CFBF7D0
:104EF000A9F9002801D1281C70BD00F087F82123F2
:104F000000210360081CFBF709FC051CF3E7C04601
:104F1000F0B5FF21C6464300020000B5041C5B0843
:104F2000C9058B4251D2002B4CD0002856DBC3154B
:104F3000014208D180210023090452001C000133E2
:104F40000A42FAD0634280241E005202520A24040C
:104F50007F3E1443DB073FD580221921002700251F
:104F6000761064005204A8182300A04202DC8518C1
:104F7000231ABF1801395C0052080029F3D1002B15
:104F800019D01C4C1C4D2068296823689846FBF7F3
:104F9000E5FE011C4046FBF75FF900280BD02068B6
:104FA0002968FBF7ADF92468011C201CFBF74AF9BE
:104FB00000281AD00237FC239B059C467F106744CB
:104FC000F005C01980BCB846F0BD011CFBF774FDAC
:104FD000211CFBF795F9F5E76400BDE7011CFBF721
:104FE000BDFE011CFBF79AFBECE7012301379F4351
:104FF000E1E7C046006F0008FC6E0008030082185D
:10500000934200D1704719700133F9E7014B1868DA
:105010007047C0461C00002070B500260C4C0D4D9A
:10502000641BA410A64209D1002600F023F80A4C04
:105030000A4D641BA410A64205D170BDB300EB5805
:1050400098470136EEE7B300EB5898470136F2E790
:10505000046F0008046F00080C6F0008046F00085C
:10506000002310B59A4200D110BDCC5CC45401336A
:10507000F8E70000F8B5C046F8BC08BC9E4670478B
:0C508000F8B5C046F8BC08BC9E4670475E
:10508C00B2080008DE070008C8070008440800083A
:10509C00C807000878080008C8070008440800087A
:1050AC00DE070008DE07000878080008440800083E
:1050BC00B4070008B4070008B40700088208000809
:1050CC00DE070008DE070008C80700081E090008F4
:1050DC00C807000878080008C80700081E0900085F
:1050EC00DE070008DE070008780800081E09000823
:1050FC00B4070008B4070008B4070008000000005B
:10510C0000000000B52700080000000000000000AF
:10511C00A92700084F5E62562D2929281F1C1C192F
:10512C00181B11161909101512080F0F0F0C0F0F61
:10513C000D091115130A1A170F191A1A1C1F202200
:10514C002626262A2A2C465B584025202037211F4C
:10515C001A171717160E1316070F120E060A0D0C38
:10516C000B0E0D0D060F16120816130F1515171929
:10517C001D1E201F232526292D30322D2F273027A9
:10518C001E1D1C1A191517150E1314050E130C04DD
:10519C000C0D0D0A0E0D0C061114100816140D151D
:1051AC001516181B1F1E1E20222128292B413526BF
:1051BC0029211D1C1C1A18181311120B1313050D81
:1051CC00120C04090C0B0A0D0A0B040E130F061516
:1051DC00130E1415141817191E1F1F2321252F31F8
:1051EC00373A321F251F1E1C1916141212120C11DD
:1051FC0013050F120E030A0B0D090C0B0A040E12E9
:10520C000E0614120C131414161619191A1A1F243C
:10521C00252930292121211F1E1D1D1718170D129C
:10522C0011091214020E120C04090A0B090B0C09B9
:10523C00020B120D0310140A1214111616161A1959
:10524C001D1E1F2B2733201C1F1F1D1D1D1C1B1556
:10525C00140F0F100A0E10050C120A0308090A0984
:10526C00090808020A100C04110E0A101112141667
:10527C001815161D1B1E21252C271F1D1C1E1C1F3F
:10528C001E1B1B150F110E0A1112020E1007010620
:10529C000909050807080009100C021110080E1264
:1052AC0011151816171A191D1D252429241F1F1C2A
:1052BC001B1F1B1D1A12160D130F071313020D12B1
:1052CC00080106070806090705FF08100B01111253
:1052DC000710120D1613161A1719191D1F1E262248
:1052EC00201F201D1D1D1A1914141012100B111142
:1052FC00020B0F05FF0404060405040400060D0B45
:10530C0002100F080F111212151717181B191D1E5A
:10531C001F2523222220211C191E1516160E1612CB
:10532C00081410000C0C02F9010202FF020200FC2E
:10533C00030D0BFE0F13060E160D1717131C1B1A5D
:10534C001D1A20202423231F1E171D1415150F1999
:10535C000F13110B1410030C0F03FF0002050505AE
:10536C0004040106100C0112140912100E160F166B
:10537C0017161C181C1D1E1F2A2324211E171B1850
:10538C0013141312161209100CFD090AFEFAFF0170
:10539C0000FE010201FA010B0BFE0E12080F151193
:1053AC001116151519181F201C1F222A282A202116
:1053BC001C12180F1315091A0F04130DFD0C0D02F6
:1053CC00FD01050403040403FD030E0FFE0E13037D
:1053DC0010170615110E1C161C201B252528231E24
:1053EC0013170D130A0E0B091208131104121304D0
:1053FC0011130A07070D0C0E0E0C09060B141306DD
:10540C001016060F0F0812090D0F0B11111914129B
:10541C0016312E2C28251C1D1A1518100A1306FEE1
:10542C000C0BFB0F0F0600080D0A060B0E09FF07ED
:10543C000F10FD0B13030A11091217121A1E1F234A
:10544C002227272E3A39362C2B241C1D1117140415
:10545C001405FA1009F9151309040B12100C10138A
:10546C000B040A1514FE0B11FF0914081115112059
:10547C002021292830353A0E070701FE04FB02FED5
:10548C00FB03F9FEFCF70B0BFF18211411151D2162
:10549C001E211E171217211A000F0FFA0402F80111
:1054AC00FEFCFFFB00000603060733302E28241FEA
:1054BC001A171216110A05FF010C0C021C1E150FEF
:1054CC001C231D1A1E201B0F15231D061013010A69
:1054DC00100E0E12131A1C1F1F22262B2C55454181
:1054EC003F3937322B1B20170D0B020014100428E8
:1054FC00281E15232B261F282A1E17202B290B1795
:10550C001E010F180B1422242D332D353B3C444C1B
:10551C0050293421161B0E1C0B04FFF3EFF4E90D7C
:10552C0009FD343427222A3936323B3B26242C31D0
:10553C0036071312F2F702FB0201061A0B121B0DAF
:10554C00282A4DFAF8F0ECE6E4E3E9E5E2EBDCD7E7
:10555C00DFD7F7F7F01C291C12172F2A223130192C
:10556C00171E2B1FF400FDE2E6E3DDE6DCE5EDE7BC
:10557C00EFECE8F2ECF0201A1911130D04FFF9F816
:10558C00F8F4EBF8F1FE030318241F1B1824272250
:10559C002C271F18232620070F0CF6F8F6F800FC12
:1055AC000007070E0303FE0804545050474A433AC1
:1055BC00413A2B281910100B24211939393128366E
:1055CC00352D33404C3A2A3540411D272D201F28BC
:1055DC0020292E2B2D37312A2C36363D746F7372C1
:1055EC00777368766D7870656A5D5563635D796C09
:1055FC005F5E6F7034273C7B6F646A7678636C7384
:10560C0069607065696E6A716E676A676169637DEE
:10561C007D7D7D7D7D7D7D7D7D7D7D7D7D7D7D7DAE
:10562C007D7D7D7D7D7D7D7D7D7D7D7D7D7D7D7D9E
:10563C007D7D7D7D7D7D7D7D7D7D7D7D7D7D7D7D8E
:10564C007D7D747670766F74727D7279776C726B07
:10565C006A766C5E7777685F6B73333348786B5C14
:10566C006169714D575C4E40574A585A525B5E54B3
:10567C005F63646B5F52474B40474645443E3F4037
:10568C002A2D271C2C2C1E4040342A363B2C2F361E
:10569C004336292E383B161D220B0009090F13180F
:1056AC001F242932292C292518191D1C18181615E8
:1056BC000F090C04F7FCF40712071F2922181B25ED
:1056CC002A2026251F1821251C020603F0F1EAE6E4
:1056DC00E6E2EAEFF4F7F60604010A08F5F7EFF54F
:1056EC00FCF1F6EFEAEEE3E7EDDEFD00F623291F11
:1056FC0018192C2D2833311B1820291EF2FDFFD828
:10570C00DED9D8E3D5DCDCD3DDD8DCE2D9E95D3BEE
:10571C003F2B261F15210E0E0EFEF8FAF5130D0267
:10572C0032372A25283C3A2C393E28212A36300299
:10573C001110EDF2F8EBF7F9FF0F060C1708271B09
:10574C003057504A3C3D37363426271C12120B0476
:10575C001915032B2A2215222B28202A2D1F16203F
:10576C002829061018FD0712090C181826272A36A6
:10577C0034393C4638362F2C2A2728231B1A130F72
:10578C000D04040E0E051F2019111C25221A2123AD
:10579C001C1118221D04101200070B090B120F13F9
:1057AC0017191C25252929100F0D0C0A0AFF0503B2
:1057BC00010AFD0203FA0E0E021D241714152024F3
:1057CC0022262218151B231D031113F90203F8FEC0
:1057DC00F9FCFEFBFFFAFF01010A403A362E2F2599
:1057EC002426141817081609FF140EFC19160D069A
:1057FC000E14130F12160E070C1716FF0B13FC08C2
:10580C00160510150E1D1A212A2831313534312E6A
:10581C00272921251D161B170D180D02110EFE131D
:10582C00130A010B100F0A0F110B040A1212FD0CB4
:10583C001304091309101713191B1B2525292E2CCA
:10584C001C1A1B1C16180E14120C17101715081AFC
:10585C00170816190D080C10101211100D0A0F193B
:10586C00160714170812130814080D110B120D1536
:10587C0013191B3425292326211D1F13181A0C203C
:10588C00130917130312130602070A09080A09065B
:10589C000207111201111705141B0A1515101B15FF
:1058AC001B231F292228262921242320201D1B1DD0
:1058BC0016171B150D161301101003FF0506050313
:1058CC00050604FE040F0F0210160A1318151719FB
:1058DC00161B1D1B2021262824252325241F201AB6
:1058EC001C1D151C1517180F1A170811150906077A
:1058FC0008090A0B0807050B14100617190D1616C4
:10590C00111A141618181F1A2121232330262922A4
:10591C00271F2022191E1C141E170D1815061413F0
:10592C00090006070706080705FF071110021518DE
:10593C000B141B111A1B17211E2125222621262B85
:10594C002621252224211E1F1C1B1918161016187F
:10595C000812150B060B0A0C090B0B09050B14117D
:10596C000817160F151616191A1D1F20222124218F
:10597C002321322B262620221F201D191C151B1714
:10598C000E1A180814180F080B0E0E0E0F0E0B061D
:10599C000E17130717180E1518121D1B1D231F2584
:1059AC001F22252226332D29272321241F1C1F1CAF
:1059BC00191A181019190815180F070E0E0F0C10BC
:1059CC000F0E061017150A1817111516161B1F1F88
:1059DC002323232423212627342E29282225201C67
:1059EC001F1E1F1A1A171218190B1418120A10114D
:1059FC00120F1210100B1118130B18161016151578
:105A0C001C1C21212123232523242A38352B28292A
:105A1C002422221F201E191C1B121C1C0B161C14CA
:105A2C000B101213111213110B141C160C191A0F44
:105A3C001719161F1D20252624252528272B493B01
:105A4C002E2C2827242422201F1D1E1C151B1D0D47
:105A5C00171D130D131413131414130C161B170CFE
:105A6C001B1914191B1A1E21232126262426252A2C
:105A7C00293B3B3A362F2926262420211B1D1C1797
:105A8C001D2010181E180E141514141415110C15B5
:105A9C001D170E1C19151A1B1B1F202325262A2720
:105AAC002828322F414753372F2D2B282825211FEB
:105ABC001F20191E21131B1F1B1115171717171643
:105ACC00130F171B170F1D1B161D1F1E212224251C
